{
  "_format": "hh-sol-artifact-1",
  "contractName": "BuyMeACoffee",
  "sourceName": "contracts/BuyMeACoffee.sol",
  "abi": [
    {
      "inputs": [],
      "stateMutability": "nonpayable",
      "type": "constructor"
    },
    {
      "anonymous": false,
      "inputs": [
        {
          "indexed": true,
          "internalType": "address",
          "name": "from",
          "type": "address"
        },
        {
          "indexed": true,
          "internalType": "address",
          "name": "to",
          "type": "address"
        },
        {
          "indexed": false,
          "internalType": "uint256",
          "name": "timestamp",
          "type": "uint256"
        },
        {
          "indexed": false,
          "internalType": "uint256",
          "name": "value",
          "type": "uint256"
        },
        {
          "indexed": false,
          "internalType": "string",
          "name": "name",
          "type": "string"
        },
        {
          "indexed": false,
          "internalType": "string",
          "name": "message",
          "type": "string"
        }
      ],
      "name": "CoffeeSold",
      "type": "event"
    },
    {
      "inputs": [
        {
          "internalType": "string",
          "name": "_name",
          "type": "string"
        },
        {
          "internalType": "string",
          "name": "_message",
          "type": "string"
        }
      ],
      "name": "buyCoffee",
      "outputs": [],
      "stateMutability": "payable",
      "type": "function"
    },
    {
      "inputs": [],
      "name": "getSales",
      "outputs": [
        {
          "components": [
            {
              "internalType": "address",
              "name": "from",
              "type": "address"
            },
            {
              "internalType": "address",
              "name": "to",
              "type": "address"
            },
            {
              "internalType": "uint256",
              "name": "timestamp",
              "type": "uint256"
            },
            {
              "internalType": "uint256",
              "name": "value",
              "type": "uint256"
            },
            {
              "internalType": "string",
              "name": "name",
              "type": "string"
            },
            {
              "internalType": "string",
              "name": "message",
              "type": "string"
            }
          ],
          "internalType": "struct BuyMeACoffee.CoffeeSale[]",
          "name": "",
          "type": "tuple[]"
        }
      ],
      "stateMutability": "view",
      "type": "function"
    },
    {
      "inputs": [
        {
          "internalType": "address payable",
          "name": "_to",
          "type": "address"
        },
        {
          "internalType": "string",
          "name": "_name",
          "type": "string"
        },
        {
          "internalType": "string",
          "name": "_message",
          "type": "string"
        }
      ],
      "name": "sendCoffee",
      "outputs": [],
      "stateMutability": "payable",
      "type": "function"
    },
    {
      "inputs": [],
      "name": "withdrawTips",
      "outputs": [],
      "stateMutability": "nonpayable",
      "type": "function"
    }
  ],
  "bytecode": "0x608060405234801561001057600080fd5b50600080546001600160a01b03191633179055610c67806100326000396000f3fe60806040526004361061003f5760003560e01c80630d83304c14610044578063204206e11461006f5780633aaa74b2146100845780636da27e2d14610099575b600080fd5b34801561005057600080fd5b506100596100ac565b6040516100669190610863565b60405180910390f35b61008261007d3660046109c6565b610267565b005b34801561009057600080fd5b506100826104fc565b6100826100a7366004610a2a565b61058a565b60606001805480602002602001604051908101604052809291908181526020016000905b8282101561025e5760008481526020908190206040805160c0810182526006860290920180546001600160a01b039081168452600182015416938301939093526002830154908201526003820154606082015260048201805491929160808401919061013b90610aac565b80601f016020809104026020016040519081016040528092919081815260200182805461016790610aac565b80156101b45780601f10610189576101008083540402835291602001916101b4565b820191906000526020600020905b81548152906001019060200180831161019757829003601f168201915b505050505081526020016005820180546101cd90610aac565b80601f01602080910402602001604051908101604052809291908181526020018280546101f990610aac565b80156102465780601f1061021b57610100808354040283529160200191610246565b820191906000526020600020905b81548152906001019060200180831161022957829003601f168201915b505050505081525050815260200190600101906100d0565b50505050905090565b600034116102bc5760405162461bcd60e51b815260206004820152601a60248201527f63616e27742062757920636f6666656520666f7220667265652100000000000060448201526064015b60405180910390fd5b6040805160c081018252338152600080546001600160a01b03908116602084019081524294840194855234606085019081526080850188815260a086018890526001805480820182559552855160069095027fb10e2d527612073b26eecdfd717e6a320cf44b4afac2b0732d9fcbe2b7fa0cf6810180549686166001600160a01b031997881617815593517fb10e2d527612073b26eecdfd717e6a320cf44b4afac2b0732d9fcbe2b7fa0cf7820180549190961696169590951790935594517fb10e2d527612073b26eecdfd717e6a320cf44b4afac2b0732d9fcbe2b7fa0cf884015593517fb10e2d527612073b26eecdfd717e6a320cf44b4afac2b0732d9fcbe2b7fa0cf9830155519192917fb10e2d527612073b26eecdfd717e6a320cf44b4afac2b0732d9fcbe2b7fa0cfa909101906103f89082610b35565b5060a0820151600582019061040d9082610b35565b5050600080546040519192506001600160a01b03169034908381818185875af1925050503d806000811461045d576040519150601f19603f3d011682016040523d82523d6000602084013e610462565b606091505b50509050806104a85760405162461bcd60e51b815260206004820152601260248201527111985a5b1959081d1bc81cd95b990815915560721b60448201526064016102b3565b6000546040516001600160a01b039091169033907fef99fce9357579d53daf866da203e5a894cdd9c4a869709c319c5c21f102f402906104ef904290349089908990610bf5565b60405180910390a3505050565b6000546001600160a01b031633146105565760405162461bcd60e51b815260206004820152601760248201527f4f6e6c79206f776e65722063616e20776974686472617700000000000000000060448201526064016102b3565b600080546040516001600160a01b03909116914780156108fc02929091818181858888f1935050505061058857600080fd5b565b600034116105da5760405162461bcd60e51b815260206004820152601a60248201527f63616e27742062757920636f6666656520666f7220667265652100000000000060448201526064016102b3565b6040805160c0810182523381526001600160a01b03858116602083019081524293830193845234606084019081526080840187815260a08501879052600180548082018255600091909152855160069091027fb10e2d527612073b26eecdfd717e6a320cf44b4afac2b0732d9fcbe2b7fa0cf6810180549287166001600160a01b031993841617815594517fb10e2d527612073b26eecdfd717e6a320cf44b4afac2b0732d9fcbe2b7fa0cf7820180549190971692169190911790945594517fb10e2d527612073b26eecdfd717e6a320cf44b4afac2b0732d9fcbe2b7fa0cf8840155517fb10e2d527612073b26eecdfd717e6a320cf44b4afac2b0732d9fcbe2b7fa0cf983015592519192917fb10e2d527612073b26eecdfd717e6a320cf44b4afac2b0732d9fcbe2b7fa0cfa909101906107169082610b35565b5060a0820151600582019061072b9082610b35565b5050506000836001600160a01b03163460405160006040518083038185875af1925050503d806000811461077b576040519150601f19603f3d011682016040523d82523d6000602084013e610780565b606091505b50509050806107c65760405162461bcd60e51b815260206004820152601260248201527111985a5b1959081d1bc81cd95b990815915560721b60448201526064016102b3565b836001600160a01b0316336001600160a01b03167fef99fce9357579d53daf866da203e5a894cdd9c4a869709c319c5c21f102f4024234878760405161080f9493929190610bf5565b60405180910390a350505050565b6000815180845260005b8181101561084357602081850181015186830182015201610827565b506000602082860101526020601f19601f83011685010191505092915050565b60006020808301818452808551808352604092508286019150828160051b87010184880160005b8381101561091557888303603f19018552815180516001600160a01b03908116855288820151168885015286810151878501526060808201519085015260808082015160c082870181905291906108e38388018261081d565b9250505060a08083015192508582038187015250610901818361081d565b96890196945050509086019060010161088a565b509098975050505050505050565b634e487b7160e01b600052604160045260246000fd5b600082601f83011261094a57600080fd5b813567ffffffffffffffff8082111561096557610965610923565b604051601f8301601f19908116603f0116810190828211818310171561098d5761098d610923565b816040528381528660208588010111156109a657600080fd5b836020870160208301376000602085830101528094505050505092915050565b600080604083850312156109d957600080fd5b823567ffffffffffffffff808211156109f157600080fd5b6109fd86838701610939565b93506020850135915080821115610a1357600080fd5b50610a2085828601610939565b9150509250929050565b600080600060608486031215610a3f57600080fd5b83356001600160a01b0381168114610a5657600080fd5b9250602084013567ffffffffffffffff80821115610a7357600080fd5b610a7f87838801610939565b93506040860135915080821115610a9557600080fd5b50610aa286828701610939565b9150509250925092565b600181811c90821680610ac057607f821691505b602082108103610ae057634e487b7160e01b600052602260045260246000fd5b50919050565b601f821115610b3057600081815260208120601f850160051c81016020861015610b0d5750805b601f850160051c820191505b81811015610b2c57828155600101610b19565b5050505b505050565b815167ffffffffffffffff811115610b4f57610b4f610923565b610b6381610b5d8454610aac565b84610ae6565b602080601f831160018114610b985760008415610b805750858301515b600019600386901b1c1916600185901b178555610b2c565b600085815260208120601f198616915b82811015610bc757888601518255948401946001909101908401610ba8565b5085821015610be55787850151600019600388901b60f8161c191681555b5050505050600190811b01905550565b848152836020820152608060408201526000610c14608083018561081d565b8281036060840152610c26818561081d565b97965050505050505056fea2646970667358221220da58360a7f4bf45d06cd5dbc684d8309e29989f5df491ecd45ea75c21f705f4664736f6c63430008140033",
  "linkReferences": {},
  "deployedLinkReferences": {}
}