{
  "_format": "hh-sol-artifact-1",
  "contractName": "BuyMeACoffee",
  "sourceName": "contracts/BuyMeACoffee.sol",
  "abi": [
    {
      "inputs": [],
      "stateMutability": "nonpayable",
      "type": "constructor"
    },
    {
      "anonymous": false,
      "inputs": [
        {
          "indexed": true,
          "internalType": "address",
          "name": "from",
          "type": "address"
        },
        {
          "indexed": false,
          "internalType": "uint256",
          "name": "timestamp",
          "type": "uint256"
        },
        {
          "indexed": false,
          "internalType": "uint256",
          "name": "value",
          "type": "uint256"
        },
        {
          "indexed": false,
          "internalType": "string",
          "name": "name",
          "type": "string"
        },
        {
          "indexed": false,
          "internalType": "string",
          "name": "message",
          "type": "string"
        }
      ],
      "name": "CoffeeSold",
      "type": "event"
    },
    {
      "inputs": [
        {
          "internalType": "string",
          "name": "_name",
          "type": "string"
        },
        {
          "internalType": "string",
          "name": "_message",
          "type": "string"
        }
      ],
      "name": "buyCoffee",
      "outputs": [],
      "stateMutability": "payable",
      "type": "function"
    },
    {
      "inputs": [],
      "name": "getSales",
      "outputs": [
        {
          "components": [
            {
              "internalType": "address",
              "name": "from",
              "type": "address"
            },
            {
              "internalType": "uint256",
              "name": "timestamp",
              "type": "uint256"
            },
            {
              "internalType": "uint256",
              "name": "value",
              "type": "uint256"
            },
            {
              "internalType": "string",
              "name": "name",
              "type": "string"
            },
            {
              "internalType": "string",
              "name": "message",
              "type": "string"
            }
          ],
          "internalType": "struct BuyMeACoffee.CoffeeSale[]",
          "name": "",
          "type": "tuple[]"
        }
      ],
      "stateMutability": "view",
      "type": "function"
    },
    {
      "inputs": [],
      "name": "withdrawTips",
      "outputs": [],
      "stateMutability": "nonpayable",
      "type": "function"
    }
  ],
  "bytecode": "0x608060405234801561001057600080fd5b50600080546001600160a01b031916331790556107e3806100326000396000f3fe6080604052600436106100345760003560e01c80630d83304c14610039578063204206e1146100645780633aaa74b214610079575b600080fd5b34801561004557600080fd5b5061004e61008e565b60405161005b919061046e565b60405180910390f35b6100776100723660046105c4565b61023c565b005b34801561008557600080fd5b506100776103f4565b60606001805480602002602001604051908101604052809291908181526020016000905b828210156102335760008481526020908190206040805160a0810182526005860290920180546001600160a01b0316835260018101549383019390935260028301549082015260038201805491929160608401919061011090610628565b80601f016020809104026020016040519081016040528092919081815260200182805461013c90610628565b80156101895780601f1061015e57610100808354040283529160200191610189565b820191906000526020600020905b81548152906001019060200180831161016c57829003601f168201915b505050505081526020016004820180546101a290610628565b80601f01602080910402602001604051908101604052809291908181526020018280546101ce90610628565b801561021b5780601f106101f05761010080835404028352916020019161021b565b820191906000526020600020905b8154815290600101906020018083116101fe57829003601f168201915b505050505081525050815260200190600101906100b2565b50505050905090565b600034116102905760405162461bcd60e51b815260206004820152601a60248201527f63616e27742062757920636f6666656520666f72206672656521000000000000604482015260640160405180910390fd5b6040805160a081018252338152426020820190815234928201928352606082018581526080830185905260018054808201825560009190915283517fb10e2d527612073b26eecdfd717e6a320cf44b4afac2b0732d9fcbe2b7fa0cf6600590920291820180546001600160a01b0319166001600160a01b0390921691909117815592517fb10e2d527612073b26eecdfd717e6a320cf44b4afac2b0732d9fcbe2b7fa0cf782015593517fb10e2d527612073b26eecdfd717e6a320cf44b4afac2b0732d9fcbe2b7fa0cf885015551919290917fb10e2d527612073b26eecdfd717e6a320cf44b4afac2b0732d9fcbe2b7fa0cf99091019061039190826106b1565b50608082015160048201906103a690826106b1565b505050336001600160a01b03167f970d27fd09868d763498683899d0f5d68b4809714ab59757947575d35fa16b42423485856040516103e89493929190610771565b60405180910390a25050565b600080546040516001600160a01b03909116914780156108fc02929091818181858888f1935050505061042657600080fd5b565b6000815180845260005b8181101561044e57602081850181015186830182015201610432565b506000602082860101526020601f19601f83011685010191505092915050565b60006020808301818452808551808352604092508286019150828160051b87010184880160005b8381101561051357888303603f19018552815180516001600160a01b031684528781015188850152868101518785015260608082015160a082870181905291906104e183880182610428565b92505050608080830151925085820381870152506104ff8183610428565b968901969450505090860190600101610495565b509098975050505050505050565b634e487b7160e01b600052604160045260246000fd5b600082601f83011261054857600080fd5b813567ffffffffffffffff8082111561056357610563610521565b604051601f8301601f19908116603f0116810190828211818310171561058b5761058b610521565b816040528381528660208588010111156105a457600080fd5b836020870160208301376000602085830101528094505050505092915050565b600080604083850312156105d757600080fd5b823567ffffffffffffffff808211156105ef57600080fd5b6105fb86838701610537565b9350602085013591508082111561061157600080fd5b5061061e85828601610537565b9150509250929050565b600181811c9082168061063c57607f821691505b60208210810361065c57634e487b7160e01b600052602260045260246000fd5b50919050565b601f8211156106ac57600081815260208120601f850160051c810160208610156106895750805b601f850160051c820191505b818110156106a857828155600101610695565b5050505b505050565b815167ffffffffffffffff8111156106cb576106cb610521565b6106df816106d98454610628565b84610662565b602080601f83116001811461071457600084156106fc5750858301515b600019600386901b1c1916600185901b1785556106a8565b600085815260208120601f198616915b8281101561074357888601518255948401946001909101908401610724565b50858210156107615787850151600019600388901b60f8161c191681555b5050505050600190811b01905550565b8481528360208201526080604082015260006107906080830185610428565b82810360608401526107a28185610428565b97965050505050505056fea264697066735822122078f171209fcb20d2e0f88c6e2bc2a51407915cbe29d125ea0a406aa8e889436564736f6c63430008140033",
  "linkReferences": {},
  "deployedLinkReferences": {}
}